:020000040800F2
:1000000000800120C1160008A9150008B1150008DC
:10001000B9150008C1150008C91500080000000046
:10002000000000000000000000000000D1150008E2
:10003000DF15000800000000ED150008FB150008A2
:1000400011170008111700081117000811170008F0
:1000500011170008111700081117000811170008E0
:1000600011170008111700081117000811170008D0
:1000700011170008111700081117000811170008C0
:1000800011170008111700081117000800000000E0
:100090000000000000000000000000001117000830
:1000A0001117000811170008111700081117000890
:1000B0001117000811170008111700081117000880
:1000C0001117000811170008111700081117000870
:1000D0001117000811170008111700080000000090
:1000E0001117000811170008111700080000000080
:1000F00000000000000000000000000011170008D0
:10010000000000001117000811170008111700085F
:1001100000000000000000000000000000000000DF
:100120001117000811170008091600081117000818
:10013000111700080000000000000000000000008F
:10014000000000000000000000000000111700087F
:1001500011170008111700081D16000811170008D4
:10016000111700081117000800000000000000002F
:10017000000000000000000000000000000000007F
:10018000000000001117000800000000000000003F
:04019000111700083B
:1001A00010B5054C237833B9044B13B10448AFF3B1
:1001B00000800123237010BD7C000020000000009F
:1001C000DC45000808B5034B1BB103490348AFF3F6
:1001D000008008BD0000000080000020DC45000811
:1001E000034613F8012B002AFBD1181A0138704777
:1001F00001F0FF01102A2BDB10F0070F08D010F8D8
:10020000013B013A8B422DD010F0070F42B3F6D1DB
:10021000F0B441EA012141EA014122F007047FF0F4
:1002200000070023F0E80256083C85EA010586EA4B
:10023000010685FA47F5A3FA87F586FA47F6A5FA87
:1002400087F68EB9EED1F0BC01F0FF0102F0070293
:1002500032B110F8013B013A83EA010313B1F8D13E
:100260000020704701387047002D06BF354603381F
:10027000073815F0010F07D1013015F4807F02BF58
:10028000013015F4C03F0130F0BC0138704700BFA9
:1002900053B94AB9002908BF00281CBF4FF0FF31ED
:1002A0004FF0FF3000F06AB9ADF1080C6DE904CEF3
:1002B00000F006F8DDF804E0DDE9022304B0704741
:1002C0002DE9F047089D0C46002B4ED194468C45F5
:1002D0008646B2FA82F262D94AB1C2F12003914055
:1002E00020FA03F30CFA02FC194300FA02FE4FEA6B
:1002F0001C471FFA8CF6B1FBF7F44FEA1E4307FBCD
:10030000141143EA014304FB06F199420AD91CEB9C
:10031000030304F1FF3080F01281994240F20F8113
:10032000023C6344591A1FFA8EF3B1FBF7F007FB46
:10033000101143EA014300FB06F69E420AD91CEB6A
:10034000030300F1FF3180F0FC809E4240F2F9800F
:10035000634402389B1B40EA044000211DB1D34096
:100360000022C5E90032BDE8F0878B4205D90DB106
:10037000C5E9000100210846F5E7B3FA83F1002939
:1003800046D1A34202D39042C0F0F080861A64EBBB
:1003900003030120002DE6D0C5E90063E3E7002A4E
:1003A00040F09080A1EB0C044FEA1C481FFA8CF738
:1003B0000121B4FBF8F64FEA1E4308FB164443EA5A
:1003C000044307FB06F0984208D91CEB030306F12F
:1003D000FF3402D2984200F2CD8026461C1A1FFA42
:1003E0008EF3B4FBF8F008FB104443EA044300FB2F
:1003F00007F79F4208D91CEB030300F1FF3402D238
:100400009F4200F2B0802046DB1B40EA0640A5E791
:10041000C1F120068B4022FA06F71F4320FA06FCA2
:1004200004FA01F343EA0C03F44000FA01F8380C33
:100430004FEA1349B4FBF0FE1FFA87FC00FB1E4491
:1004400049EA04440EFB0CF9A14502FA01F20AD96B
:100450003C190EF1FF3A80F08480A14540F2818082
:10046000AEF1020E3C44A4EB09041FFA83F9B4FB7D
:10047000F0F300FB134449EA044403FB0CFCA445DD
:1004800007D93C1903F1FF3067D2A44565D9023B77
:100490003C4443EA0E40A0FB0293A4EB0C049C42B4
:1004A000CE469C4651D34ED055B1B8EB0E0364EB0B
:1004B0000C0404FA06F6CB401E43CC40C5E90064A8
:1004C000002150E7C2F1200320FA03F10CFA02FCEC
:1004D00024FA03F394400C434FEA1C4800FA02FE4E
:1004E0001FFA8CF7B3FBF8F008FB1031230C43EA3A
:1004F000014300FB07F1994208D91CEB030300F10B
:10050000FF362CD299422AD9023863445B1AA4B22E
:10051000B3FBF8F108FB113344EA034401FB07F392
:10052000A34208D91CEB040401F1FF3613D2A34205
:1005300011D902396444E41A41EA004139E704461A
:10054000F0E6084606E7C845AED2B9EB020E63EB0B
:10055000070C0138A8E73146EDE7034699E7304636
:10056000D4E7D6467FE7634402384DE70646234684
:1005700008460FE7023E634430E700BF704700BF04
:1005800080B584B000AF0E4B1B687B600D4B1B68C1
:100590003B6072B600BF01F0DFF87B68BB60BB68F0
:1005A00083F3088800BF084B054A9A603B68FB60EC
:1005B00062B600BFFB68984700BF1037BD4680BDDC
:1005C00000C0000804C0000800ED00E080B584B061
:1005D00000AF0E4B1B687B600D4B1B683B6072B617
:1005E00000BF01F0B9F87B68BB60BB6883F3088883
:1005F00000BF084B054A9A603B68FB6062B600BFCB
:10060000FB68984700BF1037BD4680BD0000040856
:100610000400040800ED00E0B0B594B000AF03465C
:10062000FB71FB79092B02D9FB790B2B01D9012333
:1006300067E00023BB600023FB600223FB61022311
:100640007B610123BB61314BBB64BB6C1B683B62AC
:10065000BB6C5B687B62BB6C9B68BB62BB6CDB6822
:10066000FB62BB6C1B693B63BB6C5B697B63BB6CF4
:100670009B69BB63FB79FB63BB6C1B6A3B6401F04A
:10068000B1FD07F1080207F10C031146184601F00D
:100690001BFF034687F8473097F84730002B01D0FF
:1006A00004232EE0002387F84F3023E097F84F30E3
:1006B0009B0003F1006101F5004197F84F309B006A
:1006C00050333B4453F8303C00221C46154622462A
:1006D0002B46022001F034FD034687F8473097F897
:1006E0004730002B01D003230BE097F84F30013344
:1006F00087F84F3097F84F30082BD7D901F094FD89
:10070000002318465037BD46B0BD00BF008000082A
:10071000B0B594B000AF0346FB710023BB6000236B
:10072000FB600223FB6102237B610123BB61314B30
:10073000BB64BB6C1B683B62BB6C5B687B62BB6C65
:100740009B68BB62BB6CDB68FB62BB6C1B693B6379
:10075000BB6C5B697B63BB6C9B69BB63BB6CDB691C
:10076000FB63FB793B6401F03DFD07F1080207F1F3
:100770000C031146184601F0A7FE034687F84730E0
:1007800097F84730002B01D004232EE0002387F890
:100790004F3023E097F84F309B0003F1006101F5E3
:1007A000004197F84F309B0050333B4453F8303CA6
:1007B00000221C46154622462B46022001F0C0FCB2
:1007C000034687F8473097F84730002B01D00323C2
:1007D0000BE097F84F30013387F84F3097F84F30E0
:1007E000082BD7D901F020FD002318465037BD460D
:1007F000B0BD00BF0080000880B588B000AF002306
:100800003B6000237B6002237B61184BFB6101F09E
:10081000E9FCFB69DB690A2B07D10323FB60032397
:100820003B610B20FFF7F8FE0AE0FB69DB690B2B4D
:1008300006D10623FB6001233B610A20FFF7ECFE93
:100840000A2001F00FF83A463B1D1146184601F008
:100850003BFE0346FB76FB7E002B01D0042300E029
:10086000002318462037BD4680BD00BF0080000829
:100870002DE9B04FB4B000AFCC4BC7F8CC3000235B
:10088000BB670023FB670223C7F88C300223C7F83D
:1008900084300123C7F8883007F190014FF0FF330F
:1008A0001022C34802F019FE97F890301A0697F804
:1008B00091301B041A4397F892301B021A4397F8A1
:1008C00093301343C7F8C83097F894301A0697F856
:1008D00095301B041A4397F896301B021A4397F879
:1008E00097301343C7F8C43097F898301A0697F832
:1008F00099301B041A4397F89A301B021A4397F851
:100900009B301343C7F8C03097F89C301A0697F80D
:100910009D301B041A4397F89E301B021A4397F828
:100920009F301343C7F8BC30D7F8C82045F2AA530C
:100930009A4201D0062333E101F054FCD7F8CC30C1
:10094000DB690A2B03D00B2B00F0948025E1D7F84C
:10095000CC301B68C7F8A030D7F8CC305B68C7F83C
:10096000A430D7F8CC309B68C7F8A830D7F8CC3083
:10097000DB68C7F8AC30D7F8CC30DB69C7F8B030EB
:10098000D7F8CC301B6AC7F8B43007F1780207F10A
:100990007C031146184601F097FD034687F8BB30EB
:1009A00097F8BB30002B01D00423F9E0D7F8A03032
:1009B00000221C46154622462B467C49022001F0A7
:1009C000BFFBD7F8A43000229A46934652465B46B6
:1009D0007849022001F0B4FBD7F8A83000223B6729
:1009E0007A67D7E91C237449022001F0A9FBD7F8E4
:1009F000AC300022BB66FA66D7E91A236F490220A1
:100A000001F09EFBD7F8C43000223B667A66D7E936
:100A100018236B49022001F093FBD7F8C030002265
:100A2000BB65FA65D7E916236649022001F088FB09
:100A3000D7F8BC3000223B657A65D7E914236249B8
:100A4000022001F07DFBD7F8B0300022BB64FA64CD
:100A5000D7E912235D49022001F072FBD7F8B430C8
:100A600000223B647A64D7E910235949022001F03F
:100A700067FB92E0D7F8CC301B68C7F8A030D7F8F6
:100A8000CC301B69C7F8A430D7F8CC305B69C7F805
:100A9000A830D7F8CC309B69C7F8AC30D7F8CC3049
:100AA000DB69C7F8B030D7F8CC301B6AC7F8B43070
:100AB00007F1780207F17C031146184601F004FDA6
:100AC000034687F8BB3097F8BB30002B01D00423D6
:100AD00066E0D7F8A03000229846914642464B4641
:100AE0003249022001F02CFBD7F8C4300022BB634E
:100AF000FA63D7E90E232F49022001F021FBD7F832
:100B0000C03000223B637A63D7E90C232A490220D4
:100B100001F016FBD7F8BC300022BB62FA62D7E9BD
:100B20000A232649022001F00BFBD7F8A43000224B
:100B30003B627A62D7E908232149022001F000FBD9
:100B4000D7F8A8300022BB61FA61D7E906231D4916
:100B5000022001F0F5FAD7F8AC3000223B617A614F
:100B6000D7E904231849022001F0EAFAD7F8B03097
:100B70000022BB60FA60D7E902231449022001F089
:100B8000DFFAD7F8B43000223B607A60D7E900235F
:100B90000F49022001F0D4FA00BF01F045FB002309
:100BA0001846D037BD46BDE8B08F00BF00800008B2
:100BB000A000002004800008088000080C800008C5
:100BC0001080000814800008188000081C800008AD
:100BD0002080000880B588B000AF2C4BBB61BB699A
:100BE0001B699B08FB61BB691B6903F00303002BB6
:100BF00002D0FB690133FB61BB69DB690A2B02D0C0
:100C00000B2B1BD035E0FA692149224800F07BFF0D
:100C1000B860BB695B697B607A68BB689A422CD11B
:100C20000120FFF775FD0346FB73FB7B002B01D012
:100C3000FB7B26E0184800F09BFB1EE0FA69174991
:100C4000144800F060FF7861BB699B683B613A69BA
:100C50007B699A4213D10120FFF75AFD0346FB73CB
:100C6000FB7B002B01D0FB7B0BE00B4800F080FBF3
:100C700005E00B4800F07CFB02E000BF00E000BF95
:100C8000002318462037BD4680BD00BF0080000805
:100C90000000040898000020F445000800C0000887
:100CA000244600082DE9B043AEB000AF0023FB613D
:100CB00007F120037C220021184603F00FF80023DF
:100CC00087F8B730834BC7F8A03000237B60002340
:100CD000BB600223BB61D7F8A030DB690A2B02D0CE
:100CE0000B2B71D0E1E006233B6101237B61D7F838
:100CF000A0301B69DB0987F8B730D7F8A0301B6933
:100D000003F07F03002B04D097F8B730013387F846
:100D1000B73001F067FA3A1D07F10803114618468B
:100D200001F0D2FB034687F89F3097F89F30002BE5
:100D300001D00423C9E0684800F01AFB0023C7F87B
:100D4000B03035E007F11C014FF0FF3380226348DB
:100D500002F0C3FB002387F8AF301DE097F8AF2007
:100D6000D7F8B030DB01134403F1006101F58021B5
:100D700097F8AF30B8333B4413F89C3CDBB2002209
:100D80009846914642464B46002001F0D9F997F823
:100D9000AF30013387F8AF3097F9AF30002BDDDA91
:100DA0004F4800F0E5FAD7F8B0300133C7F8B0305B
:100DB00097F8B730D7F8B0209A42C3D301F034FA8D
:100DC000484800F0D5FA74E003233B6103237B61BC
:100DD000D7F8A0305B68DB0987F8B730D7F8A030C8
:100DE0005B6803F07F03002B04D097F8B730013322
:100DF00087F8B73001F0F6F93A1D07F108031146FC
:100E0000184601F061FB034687F89F3097F89F3042
:100E1000002B01D0042358E02F4800F0A9FA00234A
:100E2000C7F8A83035E007F11C014FF0FF338022EE
:100E30002A4802F052FB002387F8A7301DE097F8FC
:100E4000A720D7F8A830DB01134403F1006101F5B6
:100E5000404197F8A730B8333B4413F89C3CDBB2D1
:100E600000221C46154622462B46002001F068F958
:100E700097F8A730013387F8A73097F9A730002BF0
:100E8000DDDA174800F074FAD7F8A8300133C7F854
:100E9000A83097F8B730D7F8A8209A42C3D301F00A
:100EA000C3F9104800F064FA03E00F4800F060FA5C
:100EB00000BFFFF78FFE034687F89E3097F89E30FD
:100EC000002B01D0052300E000231846B837BD46AB
:100ED000BDE8B0830080000840460008A000002064
:100EE00048460008504600085846000880B582B0C1
:100EF00000AF0023BB71B91D4FF0FF330122214821
:100F000002F0EBFABB79012B02D0022B1BD02FE0B1
:100F10001D4800F02DFAFFF7ABFC0346FB71FB798F
:100F2000002B05D0FB791946184800F021FA24E07F
:100F3000FFF7B8FE0346FB71FB79002B1CD0144869
:100F400000F016FA19E0134800F012FAFFF754FC0B
:100F50000346FB71FB79002B06D10F4800F008FA1D
:100F60000E4800F005FA08E00D4800F001FA04E030
:100F70000C4800F0FDF900E000BF00BF0837BD4697
:100F800080BD00BFA0000020704600089046000809
:100F9000A8460008C4460008E0460008F4460008D9
:100FA000144700082447000880B500AF0122022141
:100FB000044801F045FD044800F0DAF9FFF796FF18
:100FC00000BF80BD000002403847000880B584B0F3
:100FD00000AF4C4BBB600023FB60BB681B6903F098
:100FE0000303002B02D0FB680133FB60012146485C
:100FF00001F00EFD0346002B02D1FFF7D5FF7CE088
:10100000BB68DB690A2B02D00B2B39D071E0BB68BF
:101010001B6A012B2BD1BB681B699B08FB60BB685B
:101020001B6903F00303002B02D0FB680133FB6054
:10103000FA683649364800F066FD3860BB685B697F
:101040001946344800F094F93968334800F090F9B3
:101050000B20FFF7E1FA0A2000F004FC0020FFF764
:1010600057FB2E4800F084F9FFF7B0FA45E0BB6863
:10107000DB6919462A4800F07BF9FFF781FA3CE06A
:10108000BB681B6A012B2BD1BB685B689B08FB60AC
:10109000BB685B6803F00303002B02D0FB680133DD
:1010A000FB60FA681F491A4800F02DFD7860BB68A4
:1010B0009B681946174800F05BF979681A4800F0F8
:1010C00057F90A20FFF7A8FA0A2000F0CBFB00200E
:1010D000FFF71EFB154800F04BF9FFF751FA0CE043
:1010E000BB68DB691946124800F042F9FFF76EFA57
:1010F00003E0104800F03CF900BF00BF1037BD46C8
:1011000080BD00BF0080000800000240000004080D
:101110009800002050470008604700087447000806
:10112000A447000800C00008C8470008DC470008C2
:101130000C4800083048000880B500AF00F0EAFA1B
:1011400000F00CF800F0D0F800F0A6F800F066F817
:1011500000F078F8FFF73AFF00BFFDE780B594B0E4
:1011600000AF07F1200330220021184602F0B6FD3F
:1011700007F10C0300221A605A609A60DA601A6163
:101180000023BB60234B1B6C224A43F08053136443
:10119000204B1B6C03F08053BB60BB6800237B605B
:1011A0001D4B1B6823F440431B4A43F40043136068
:1011B000194B1B6803F440437B607B6802233B624E
:1011C0000123FB6210233B630023BB6307F1200371
:1011D000184601F04FFC0346002B01D000F0C2F886
:1011E0000F23FB6000233B6100237B610023BB6175
:1011F0000023FB6107F10C030021184601F0B2FE49
:101200000346002B01D000F0ADF800BF5037BD46BB
:1012100080BD00BF003802400070004080B500AFC4
:10122000064B074A1A60054800F051FC0346002BA4
:1012300001D000F097F800BF80BD00BF98000020EB
:101240000030024080B500AF114B124A1A60104BBB
:101250004FF4E1325A600E4B00229A600C4B002290
:10126000DA600B4B00221A61094B0C225A61084BC1
:1012700000229A61064B0022DA61054802F052F81A
:101280000346002B01D000F06DF800BF80BD00BF09
:10129000A00000200010014080B582B000AF002304
:1012A0007B60104B1B6B0F4A43F4800313630D4BA1
:1012B0001B6B03F480037B607B68002200213A20D3
:1012C00000F0CFFB3A2000F0E8FB0022002146208E
:1012D00000F0C7FB462000F0E0FB00BF0837BD462A
:1012E00080BD00BF0038024080B586B000AF3B1D16
:1012F00000221A605A609A60DA601A6100233B602B
:10130000164B1B6B154A43F001031363134B1B6B06
:1013100003F001033B603B6800220221104801F00A
:101320008FFB01237B600023BB600123FB603B1D1F
:1013300019460B4801F0E8F902237B600123BB60EA
:101340000023FB6000233B613B1D1946044801F06C
:10135000DBF900BF1837BD4680BD00BF0038024032
:101360000000024080B400AF72B600BF00BFFDE7CE
:101370000FB480B582B000AF07F114037B607B68C7
:101380003A6932210A4802F09BFC0948FEF728FF1F
:1013900003469AB24FF47A730549064802F012F8F0
:1013A00000BF0837BD46BDE8804004B0704700BFAD
:1013B000A8010020A000002080B483B000AF00236B
:1013C0007B60104B5B6C0F4A43F4804353640D4BBE
:1013D0005B6C03F480437B607B6800233B60094BBC
:1013E0001B6C084A43F080531364064B1B6C03F0DC
:1013F00080533B603B6800BF0C37BD465DF8047B03
:10140000704700BF0038024080B485B000AF7860FC
:101410007B681B680B4A93420DD10023FB600A4B8B
:101420001B6B094A43F480531363074B1B6B03F494
:101430008053FB60FB6800BF1437BD465DF8047B3A
:10144000704700BF003002400038024080B58AB0CB
:1014500000AF786007F1140300221A605A609A60A6
:10146000DA601A617B681B68484A934240F08980C1
:1014700000233B61464B5B6C454A43F010035364C9
:10148000434B5B6C03F010033B613B690023FB6043
:101490003F4B1B6B3E4A43F0010313633C4B1B6BFA
:1014A00003F00103FB60FB684FF4C0637B61022320
:1014B000BB610023FB6103233B6207237B6207F1CF
:1014C00014031946334801F01FF9334B334A1A60AD
:1014D000314B4FF000625A602F4B00229A602E4B26
:1014E0000022DA602C4B4FF480621A612A4B0022F2
:1014F0005A61294B00229A61274B0022DA61264B60
:1015000000221A62244B00225A62234800F02EFB6C
:101510000346002B01D0FFF725FF7B681E4ADA63E4
:101520001D4A7B6893631E4B1E4A1A601C4B4FF08A
:1015300000625A601A4B40229A60194B0022DA600E
:10154000174B4FF480621A61154B00225A61144BFD
:1015500000229A61124B0022DA61114B00221A62BA
:101560000F4B00225A620E4800F000FB0346002B8E
:1015700001D0FFF7F7FE7B68094A9A63084A7B6847
:10158000936300BF2837BD4680BD00BF00100140F7
:101590000038024000000240E800002040640240A1
:1015A00048010020B864024080B400AF00BFFDE7EE
:1015B00080B400AF00BFFDE780B400AF00BFFDE71F
:1015C00080B400AF00BFFDE780B400AF00BFFDE70F
:1015D00080B400AF00BFBD465DF8047B704780B4A7
:1015E00000AF00BFBD465DF8047B704780B400AF1C
:1015F00000BFBD465DF8047B704780B500AF00F0CA
:1016000011F900BF80BD000080B500AF024800F0B6
:101610005BFB00BF80BD00BFE800002080B500AFCD
:10162000024800F051FB00BF80BD00BF4801002010
:1016300080B586B000AF7860144A154BD31A7B6131
:101640007B693B61134B1B68002B02D1114B124A83
:101650001A60104B1A687B6813443A699A4207D2A1
:1016600002F044FB03460C221A604FF0FF3309E0FE
:10167000084B1B68FB60074B1A687B681344054ADC
:101680001360FB6818461837BD4680BD00800120F6
:1016900000040000DC0100203003002080B400AF13
:1016A000064BD3F88830054A43F47003C2F88830FB
:1016B00000BFBD465DF8047B704700BF00ED00E051
:1016C000DFF834D0FFF7EAFF0C480D490D4A00233C
:1016D00002E0D458C4500433C4188C42F9D30A4AE7
:1016E0000A4C002301E013600432A242FBD302F053
:1016F00003FBFFF721FD7047008001200000002060
:101700007C000020AC4800087C0000202C03002056
:10171000FEE7000080B500AF0E4B1B680D4A43F496
:10172000007313600B4B1B680A4A43F48063136019
:10173000084B1B68074A43F480731360032000F0D2
:1017400085F90F2000F03EF8FFF736FE002318461B
:1017500080BD00BF003C024080B500AF114B124A73
:101760001A62104B00221A620E4B104A5A620D4B3D
:1017700000225A620B4B0E4A1A610A4B00221A6170
:10178000084B80225A61074B00225A61054B4FF0EB
:10179000FF329A61034B00229A6100F00BF800239C
:1017A000184680BD003802400FC8E21031790700AA
:1017B0009F10600080B400AF00BFBD465DF8047BA1
:1017C0007047000080B582B000AF7860124B1A6895
:1017D000124B1B7819464FF47A73B3FBF1F3B2FB4B
:1017E000F3F3184600F067F90346002B01D00123FC
:1017F0000EE07B680F2B0AD8002279684FF0FF308B
:1018000000F02FF9064A7B681360002300E00123F3
:1018100018460837BD4680BD0000002008000020A3
:101820000400002080B400AF064B1B781A46064B1C
:101830001B681344044A136000BFBD465DF8047B77
:10184000704700BF08000020E001002080B400AF16
:10185000034B1B681846BD465DF8047B704700BF0C
:10186000E001002080B584B000AF7860FFF7EEFFA4
:10187000B8607B68FB60FB68B3F1FF3F05D00A4BA3
:101880001B781A46FB681344FB6000BFFFF7DEFFBE
:101890000246BB68D31AFA689A42F7D800BF00BF65
:1018A0001037BD4680BD00BF0800002080B485B061
:1018B00000AF78607B6803F00703FB600C4BDB68CC
:1018C000BB60BA684FF6FF031340BB60FB681A02A7
:1018D000BB68134343F0BF6343F40033BB60044A67
:1018E000BB68D36000BF1437BD465DF8047B70470A
:1018F00000ED00E080B400AF044BDB681B0A03F08E
:1019000007031846BD465DF8047B704700ED00E014
:1019100080B483B000AF0346FB7197F90730002B0A
:101920000BDBFB7903F01F02074997F907305B09CE
:10193000012000FA02F241F8232000BF0C37BD4617
:101940005DF8047B704700BF00E100E080B483B025
:1019500000AF03463960FB7197F90730002B0ADBB3
:101960003B68DAB20C4997F907301201D2B20B4446
:1019700083F800230AE03B68DAB20849FB7903F0F8
:101980000F03043B1201D2B20B441A7600BF0C378E
:10199000BD465DF8047B704700E100E000ED00E02B
:1019A00080B489B000AFF860B9607A60FB6803F07A
:1019B0000703FB61FB69C3F10703042B28BF042362
:1019C000BB61FB690433062B02D9FB69033B00E0D2
:1019D00000237B614FF0FF32BB6902FA03F3DA4365
:1019E000BB681A407B699A404FF0FF317B6901FA6E
:1019F00003F3D9437B680B40134318462437BD4695
:101A00005DF8047B7047000080B582B000AF78605D
:101A10007B68013BB3F1807F01D301230FE00A4AC9
:101A20007B68013B53600F214FF0FF30FFF78EFFC3
:101A3000054B00229A60044B07221A6000231846C7
:101A40000837BD4680BD00BF10E000E080B582B021
:101A500000AF78607868FFF729FF00BF0837BD4600
:101A600080BD80B586B000AF0346B9607A60FB7375
:101A700000237B61FFF73EFF78617A68B968786977
:101A8000FFF78EFF024697F90F3011461846FFF711
:101A90005DFF00BF1837BD4680BD80B582B000AF86
:101AA0000346FB7197F907301846FFF731FF00BF77
:101AB0000837BD4680BD80B582B000AF78607868D9
:101AC000FFF7A2FF034618460837BD4680BD80B524
:101AD00082B000AF78607B68002B01D101230EE05B
:101AE0007B685B79DBB2002B05D17B6800221A7121
:101AF0007868FFF789FC7B6801225A710023184639
:101B00000837BD4680BD80B487B000AFF860B960CB
:101B10007A6000233B61FB6802225A71FB681B68F4
:101B20009A68FB681B6842F001029A6000237B619F
:101B30000AE07B699B00BA681A44FB681B6812685C
:101B40001A607B6901337B617A697B689A42F0D3C2
:101B5000FB681B681B683B61FB6801225A713B698B
:101B600018461C37BD465DF8047B704780B586B0CB
:101B700000AF786000237B61FFF768FE38617B6807
:101B8000002B01D1012399E07B68022283F83520E4
:101B90007B68002283F834207B681B681A687B68A6
:101BA0001B6822F001021A600FE0FFF74FFE0246A9
:101BB0003B69D31A052B08D97B6820225A657B68BC
:101BC000032283F83520032378E07B681B681B68B9
:101BD00003F00103002BE8D17B681B681B687B6165
:101BE0007A69384B13407B617B685A687B689B68D5
:101BF0001A437B68DB681A437B681B691A437B685E
:101C00005B691A437B689B691A437B68DB691A43EB
:101C10007B681B6A13437A6913437B617B685B6A49
:101C2000042B07D17B68DA6A7B681B6B13437A69E4
:101C300013437B617B681B687A691A607B681B6849
:101C40005B697B617B6923F007037B617B685B6A6F
:101C50007A6913437B617B685B6A042B17D17B68CD
:101C60009B6A7A6913437B617B68DB6A002B0ED029
:101C7000786800F0E9F90346002B08D07B68402221
:101C80005A657B68012283F83520012316E07B68C2
:101C90001B687A695A61786800F0A0F90346FB6016
:101CA0007B68DB6D3F229A40FB689A607B6800226C
:101CB0005A657B68012283F83520002318461837BF
:101CC000BD4680BD3F8010F080B586B000AF786023
:101CD0000023BB608E4B1B688E4AA2FB03239B0A2A
:101CE0007B617B689B6D3B613B691B68FB607B682C
:101CF000DB6D08229A40FB681340002B1AD07B68EA
:101D00001B681B6803F00403002B13D07B681B685F
:101D10001A687B681B6822F004021A607B68DB6D1E
:101D200008229A403B699A607B685B6D43F0010230
:101D30007B685A657B68DB6D01229A40FB68134023
:101D4000002B12D07B681B685B6903F08003002BBB
:101D50000BD07B68DB6D01229A403B699A607B68FF
:101D60005B6D43F002027B685A657B68DB6D042281
:101D70009A40FB681340002B12D07B681B681B68DD
:101D800003F00203002B0BD07B68DB6D04229A402A
:101D90003B699A607B685B6D43F004027B685A651F
:101DA0007B68DB6D10229A40FB681340002B43D008
:101DB0007B681B681B6803F00803002B3CD07B6822
:101DC000DB6D10229A403B699A607B681B681B6838
:101DD00003F48023002B18D07B681B681B6803F476
:101DE0000023002B08D17B681B6C002B24D07B6860
:101DF0001B6C786898471FE07B689B6C002B1BD09E
:101E00007B689B6C7868984716E07B681B681B684A
:101E100003F48073002B07D17B681B681A687B680A
:101E20001B6822F008021A607B681B6C002B03D031
:101E30007B681B6C786898477B68DB6D20229A4032
:101E4000FB681340002B00F08F807B681B681B68C9
:101E500003F01003002B00F087807B68DB6D2022ED
:101E60009A403B699A607B6893F83530DBB2052B6A
:101E700036D17B681B681A687B681B6822F01602E3
:101E80001A607B681B685A697B681B6822F08002B5
:101E90005A617B681B6C002B03D17B689B6C002B09
:101EA00007D07B681B681A687B681B6822F00802F1
:101EB0001A607B68DB6D3F229A403B699A607B68C1
:101EC000012283F835207B68002283F834207B6868
:101ED0001B6D002B7ED07B681B6D7868984779E07E
:101EE0007B681B681B6803F48023002B1DD07B6874
:101EF0001B681B6803F40023002B0DD17B685B6C0F
:101F0000002B31D07B685B6C786898472CE000BF71
:101F100000000020B5814E1B7B68DB6B002B23D0BB
:101F20007B68DB6B786898471EE07B681B681B68E2
:101F300003F48073002B0FD17B681B681A687B68E1
:101F40001B6822F010021A607B68012283F835209A
:101F50007B68002283F834207B68DB6B002B03D086
:101F60007B68DB6B786898477B685B6D002B32D0B1
:101F70007B685B6D03F00103002B22D07B68052298
:101F800083F835207B681B681A687B681B6822F021
:101F900001021A60BB680133BB607A699A4207D3B9
:101FA0007B681B681B6803F00103002BF2D100E083
:101FB00000BF7B68012283F835207B68002283F80C
:101FC00034207B68DB6C002B05D07B68DB6C786889
:101FD000984700E000BF1837BD4680BD80B485B08B
:101FE00000AF78607B681B68DBB2103B144AA2FB31
:101FF00003231B09FB60134AFB6813441B781A4632
:102000007B68DA65FB68032B09D97B681B6823F4BE
:102010007F7323F003031A1D7B689A6507E07B68D2
:102020001B6823F47F7323F003037A6893657B684E
:102030009B6D18461437BD465DF8047B704700BFA2
:10204000ABAAAAAA6048000880B485B000AF786047
:102050000023FB737B689B6ABB607B689B69002BDA
:102060001FD1BB68032B56D801A252F823F000BF42
:102070008120000893200008812000081721000813
:102080007B68DB6A03F08073002B46D00123FB736F
:1020900043E07B68DB6AB3F1C07F40D10123FB736F
:1020A0003DE07B689B69B3F5005F21D1BB68032BE2
:1020B00037D801A252F823F0C9200008CF20000829
:1020C000C9200008E12000080123FB7330E07B6891
:1020D000DB6A03F08073002B25D00123FB7322E021
:1020E0007B68DB6AB3F1C07F1FD10123FB731CE067
:1020F000BB68022B03D9BB68032B03D018E0012374
:10210000FB7315E07B68DB6A03F08073002B0ED055
:102110000123FB730BE000BF0AE000BF08E000BF33
:1021200006E000BF04E000BF02E000BF00E000BF27
:10213000FB7B18461437BD465DF8047B704700BF33
:1021400080B586B000AFF860B960C7E90023234BC3
:102150001B7E012B01D102233BE0204B01221A768A
:102160004CF2503000F070F80346FB75FB7D002BFD
:102170002BD1FB68002B05D13B781946B86800F0DD
:102180001BF916E0FB68012B05D13B881946B8689E
:1021900000F0EEF80DE0FB68022B05D13B68194614
:1021A000B86800F0C3F804E0D7E90023B86800F08D
:1021B0008BF84CF2503000F047F80346FB75084BA3
:1021C0001B69074A23F001031361044B00221A76AE
:1021D000FB7D18461837BD4680BD00BF0C000020AF
:1021E000003C024080B483B000AF0023FB710B4B76
:1021F0001B69002B0BDA094B094A5A60074B094A45
:102200005A60064B1B69002B01DA0123FB71FB7935
:1022100018460C37BD465DF8047B7047003C024011
:1022200023016745AB89EFCD80B400AF054B1B6937
:10223000044A43F00043136100231846BD465DF88D
:10224000047B7047003C024080B584B000AF7860EA
:102250000023FB601A4B0022DA61FFF7F7FAF860FF
:1022600010E07B68B3F1FF3F0CD07B68002B07D0F8
:10227000FFF7ECFA0246FB68D31A7A689A4201D259
:10228000032319E00F4BDB6803F48033002BE8D104
:102290000C4BDB6803F00103002B02D0094B012239
:1022A000DA60084BDB6803F4F973002B03D000F00D
:1022B000A5F8012300E0002318461037BD4680BD75
:1022C0000C000020003C024080B485B000AFF860F4
:1022D000C7E90023144B1B69134A23F440731361AD
:1022E000114B1B69104A43F4407313610E4B1B6979
:1022F0000D4A43F001031361FB683A681A60BFF3AB
:102300006F8F00BFD7E900014FF000024FF00003CC
:102310000A000023F968043113460B6000BF14372C
:10232000BD465DF8047B7047003C024080B483B03A
:1023300000AF786039600D4B1B690C4A23F4407381
:1023400013610A4B1B69094A43F400731361074B7D
:102350001B69064A43F0010313617B683A681A60FF
:1023600000BF0C37BD465DF8047B7047003C02405F
:1023700080B483B000AF78600B467B800D4B1B6947
:102380000C4A23F4407313610A4B1B69094A43F456
:1023900080731361074B1B69064A43F00103136105
:1023A0007B687A881A8000BF0C37BD465DF8047BD5
:1023B000704700BF003C024080B483B000AF78603B
:1023C0000B46FB700C4B1B690B4A23F440731361E3
:1023D000094B094A1B691361074B1B69064A43F005
:1023E000010313617B68FA781A7000BF0C37BD4691
:1023F0005DF8047B704700BF003C024080B400AF32
:102400002F4BDB6803F01003002B08D02D4BDB694A
:1024100043F010032B4AD361294B1022DA60284B7A
:10242000DB6803F02003002B08D0264BDB6943F068
:102430000803244AD361224B2022DA60204BDB6858
:1024400003F04003002B08D01E4BDB6943F004036C
:102450001C4AD3611A4B4022DA60194BDB6803F047
:102460008003002B08D0174BDB6943F00203154AA9
:10247000D361134B8022DA60114BDB6803F4807365
:10248000002B09D00F4BDB6943F001030D4AD361E8
:102490000B4B4FF48072DA60094BDB6803F00203E8
:1024A000002B08D0074BDB6943F02003054AD361BA
:1024B000034B0222DA6000BFBD465DF8047B704723
:1024C000003C02400C00002080B584B000AF786072
:1024D00039600023BB60314B1B7E012B01D10223ED
:1024E00058E02E4B01221A764CF25030FFF7ACFE2A
:1024F0000346FB73FB7B002B48D13B684FF0FF3258
:102500001A607B681B68012B15D17B681B69DAB2E6
:102510007B685B681946104600F044F84CF2503076
:10252000FFF792FE0346FB731D4B1B691C4A23F009
:102530000403136128E07B689B68BB601CE07B6838
:102540001B69DBB21946B86800F050F84CF2503005
:10255000FFF77AFE0346FB73114B1B69104A23F009
:10256000FA031361FB7B002B03D03B68BA681A6047
:102570000AE0BB680133BB607B68DA687B689B68F4
:102580001344BA689A42DAD300F078F8034B002279
:102590001A76FB7B18461037BD4680BD0C00002024
:1025A000003C024080B483B000AF03463960FB7149
:1025B0000D4B1B690C4A23F4407313610A4B1B69D2
:1025C000094A43F004031361074B1A69FB791B02A4
:1025D0001343054A43F48033136100BF0C37BD46F3
:1025E0005DF8047B704700BF003C024080B485B0BA
:1025F00000AF78600B46FB700023FB60FB78002B7C
:1026000002D10023FB6010E0FB78012B03D14FF4D3
:102610008073FB6009E0FB78022B03D14FF4007359
:10262000FB6002E04FF44073FB60134B1B69124ADE
:1026300023F440731361104B1A690F49FB6813436D
:102640000B610D4B1B690C4A23F0F80313610A4B15
:102650001A697B68DB001343074A43F002031361E6
:10266000054B1B69044A43F48033136100BF1437E0
:10267000BD465DF8047B7047003C024080B400AF6B
:10268000204B1B6803F40073002B17D01D4B1B68F5
:102690001C4A23F4007313601A4B1B68194A43F455
:1026A00000631360174B1B68164A23F40063136022
:1026B000144B1B68134A43F400731360114B1B68DF
:1026C00003F48063002B17D00E4B1B680D4A23F4D4
:1026D000806313600B4B1B680A4A43F480531360FA
:1026E000084B1B68074A23F480531360054B1B6893
:1026F000044A43F48063136000BFBD465DF8047B69
:10270000704700BF003C024080B489B000AF7860E1
:10271000396000237B6100233B610023BB61002300
:10272000FB6159E10122FB6902FA03F37B613B681B
:102730001B687A6913403B613A697B699A4240F0B1
:1027400048813B685B6803F00303012B05D03B68BD
:102750005B6803F00303022B30D17B689B68BB618D
:10276000FB695B00032202FA03F3DB43BA691340FF
:10277000BB613B68DA68FB695B0002FA03F3BA6984
:102780001343BB617B68BA699A607B685B68BB6115
:102790000122FB6902FA03F3DB43BA691340BB6110
:1027A0003B685B681B0903F00102FB6902FA03F353
:1027B000BA691343BB617B68BA695A603B685B685E
:1027C00003F00303032B17D07B68DB68BB61FB6955
:1027D0005B00032202FA03F3DB43BA691340BB61D7
:1027E0003B689A68FB695B0002FA03F3BA6913431A
:1027F000BB617B68BA69DA603B685B6803F003031E
:10280000022B23D1FB69DA087B68083253F82230A7
:10281000BB61FB6903F007039B000F2202FA03F37D
:10282000DB43BA691340BB613B681A69FB6903F07B
:1028300007039B0002FA03F3BA691343BB61FB6908
:10284000DA087B680832B96943F822107B681B6894
:10285000BB61FB695B00032202FA03F3DB43BA6945
:102860001340BB613B685B6803F00302FB695B00DC
:1028700002FA03F3BA691343BB617B68BA691A6051
:102880003B685B6803F44033002B00F0A280002318
:10289000FB60574B5B6C564A43F480435364544B84
:1028A0005B6C03F48043FB60FB68524AFB699B0846
:1028B000023352F82330BB61FB6903F003039B0032
:1028C0000F2202FA03F3DB43BA691340BB617B6852
:1028D000494A934219D07B68484A934213D07B6897
:1028E000474A93420DD07B68464A934207D07B68A3
:1028F000454A934201D1042308E0072306E003235D
:1029000004E0022302E0012300E00023FA6902F060
:10291000030292009340BA691343BB613549FB69D6
:102920009B080233BA6941F82320384B9B68BB618E
:102930003B69DB43BA691340BB613B685B6803F4E6
:102940008013002B03D0BA693B691343BB612F4A44
:10295000BB6993602D4BDB68BB613B69DB43BA69A4
:102960001340BB613B685B6803F40013002B03D08A
:10297000BA693B691343BB61244ABB69D360234BEB
:102980005B68BB613B69DB43BA691340BB613B6871
:102990005B6803F40033002B03D0BA693B6913432F
:1029A000BB611A4ABB695360184B1B68BB613B692A
:1029B000DB43BA691340BB613B685B6803F4803357
:1029C000002B03D0BA693B691343BB610F4ABB6953
:1029D0001360FB690133FB61FB690F2B7FF6A2AE2D
:1029E00000BF00BF2437BD465DF8047B704700BFC1
:1029F000003802400038014000000240000402405C
:102A000000080240000C024000100240003C01405F
:102A100080B485B000AF78600B467B807B681A6914
:102A20007B881340002B02D00123FB7301E00023BD
:102A3000FB73FB7B18461437BD465DF8047B70477B
:102A400080B483B000AF78600B467B8013467B7008
:102A50007B78002B03D07A887B689A6103E07B88BF
:102A60001A047B689A6100BF0C37BD465DF8047B91
:102A70007047000080B586B000AF78607B68002B9F
:102A800001D1012367E27B681B6803F00103002B7F
:102A900075D0884B9B6803F00C03042B0CD0854B3E
:102AA0009B6803F00C03082B12D1824B5B6803F484
:102AB0008003B3F5800F0BD17E4B1B6803F400330A
:102AC000002B5BD07B685B68002B57D1012342E26F
:102AD0007B685B68B3F5803F06D1764B1B68754A0F
:102AE00043F4803313601DE07B685B68B3F5A02F6F
:102AF0000CD1704B1B686F4A43F4802313606D4BFD
:102B00001B686C4A43F4803313600BE0694B1B680D
:102B1000684A23F480331360664B1B68654A23F4CC
:102B2000802313607B685B68002B13D0FEF78EFE5A
:102B3000386108E0FEF78AFE02463B69D31A642B2F
:102B400001D9032307E25B4B1B6803F40033002B1E
:102B5000F0D014E0FEF77AFE386108E0FEF776FE6A
:102B600002463B69D31A642B01D90323F3E1514B8D
:102B70001B6803F40033002BF0D100E000BF7B683A
:102B80001B6803F00203002B63D04A4B9B6803F0E1
:102B90000C03002B0BD0474B9B6803F00C03082B56
:102BA0001CD1444B5B6803F48003002B16D1414BCE
:102BB0001B6803F00203002B05D07B68DB68012B48
:102BC00001D00123C7E13B4B1B6823F0F8027B686F
:102BD0001B69DB00374913430B603AE07B68DB6815
:102BE000002B20D0344B01221A60FEF72FFE3861F3
:102BF00008E0FEF72BFE02463B69D31A022B01D9EF
:102C00000323A8E12B4B1B6803F00203002BF0D039
:102C1000284B1B6823F0F8027B681B69DB00254901
:102C200013430B6015E0244B00221A60FEF70EFEE2
:102C3000386108E0FEF70AFE02463B69D31A022B10
:102C400001D9032387E11B4B1B6803F00203002B10
:102C5000F0D17B681B6803F00803002B36D07B683B
:102C60005B69002B16D0154B01221A60FEF7EEFDB2
:102C7000386108E0FEF7EAFD02463B69D31A022BF1
:102C800001D9032367E10B4B5B6F03F00203002BB9
:102C9000F0D01BE0094B00221A60FEF7D7FD386127
:102CA0000EE0FEF7D3FD02463B69D31A022B07D98B
:102CB000032350E10038024000004742800E4742A3
:102CC000884B5B6F03F00203002BEAD17B681B6823
:102CD00003F00403002B00F097800023FB75814B69
:102CE0001B6C03F08053002B0FD10023BB607D4B86
:102CF0001B6C7C4A43F0805313647A4B1B6C03F0CB
:102D00008053BB60BB680123FB75774B1B6803F4E2
:102D10008073002B18D1744B1B68734A43F4807383
:102D20001360FEF793FD386108E0FEF78FFD024661
:102D30003B69D31A022B01D903230CE16A4B1B68B0
:102D400003F48073002BF0D07B689B68012B06D1C5
:102D5000644B1B6F634A43F0010313671CE07B68FD
:102D60009B68052B0CD15F4B1B6F5E4A43F004033D
:102D700013675C4B1B6F5B4A43F0010313670BE067
:102D8000584B1B6F574A23F001031367554B1B6FBA
:102D9000544A23F0040313677B689B68002B15D00B
:102DA000FEF754FD38610AE0FEF750FD02463B692C
:102DB000D31A41F28832934201D90323CBE0494B25
:102DC0001B6F03F00203002BEED014E0FEF73EFD74
:102DD00038610AE0FEF73AFD02463B69D31A41F238
:102DE0008832934201D90323B5E03E4B1B6F03F0B9
:102DF0000203002BEED1FB7D012B05D1394B1B6C5F
:102E0000384A23F0805313647B689B69002B00F0E1
:102E1000A180344B9B6803F00C03082B5CD07B68CB
:102E20009B69022B41D1314B00221A60FEF70EFD47
:102E3000386108E0FEF70AFD02463B69D31A022B0F
:102E400001D9032387E0274B1B6803F00073002B95
:102E5000F0D17B68DA697B681B6A1A437B685B6A1E
:102E60009B011A437B689B6A5B08013B1B041A4366
:102E70007B68DB6A1B061B4913434B601B4B01221B
:102E80001A60FEF7E3FC386108E0FEF7DFFC02465B
:102E90003B69D31A022B01D903235CE0114B1B6859
:102EA00003F00073002BF0D054E0104B00221A60A6
:102EB000FEF7CCFC386108E0FEF7C8FC02463B692F
:102EC000D31A022B01D9032345E0064B1B6803F0FC
:102ED0000073002BF0D13DE07B689B69012B07D18B
:102EE000012338E000380240007000406000474293
:102EF0001B4B5B68FB607B689B69012B28D0FB68E0
:102F000003F480027B68DB699A4221D1FB6803F0FD
:102F10003F027B681B6A9A421AD1FA6847F6C0736F
:102F200013407A68526A9201934211D1FB6803F40C
:102F300040327B689B6A5B08013B1B049A4207D1C5
:102F4000FB6803F070627B68DB6A1B069A4201D063
:102F5000012300E0002318461837BD4680BD00BF9E
:102F60000038024080B584B000AF786039607B687B
:102F7000002B01D10123CCE0684B1B6803F0070351
:102F80003A689A420CD9654B3A68D2B21A70634BD0
:102F90001B6803F007033A689A4201D00123B8E0A6
:102FA0007B681B6803F00203002B20D07B681B6842
:102FB00003F00403002B05D0594B9B68584A43F497
:102FC000E05393607B681B6803F00803002B05D077
:102FD000534B9B68524A43F460439360504B9B6849
:102FE00023F0F0027B689B684D4913438B607B683C
:102FF0001B6803F00103002B44D07B685B68012B46
:1030000007D1474B1B6803F40033002B19D1012370
:103010007FE07B685B68022B03D07B685B68032BD7
:1030200007D13F4B1B6803F00073002B09D101232C
:103030006FE03B4B1B6803F00203002B01D101231F
:1030400067E0374B9B6823F003027B685B68344979
:1030500013438B60FEF7FAFBF8600AE0FEF7F6FB1D
:103060000246FB68D31A41F28832934201D9032306
:103070004FE02B4B9B6803F00C027B685B689B0066
:103080009A42EBD1254B1B6803F007033A689A423A
:103090000CD2224B3A68D2B21A70204B1B6803F054
:1030A00007033A689A4201D0012332E07B681B682B
:1030B00003F00403002B08D0194B9B6823F4E05263
:1030C0007B68DB68164913438B607B681B6803F0E1
:1030D0000803002B09D0124B9B6823F460427B68E5
:1030E0001B69DB000E4913438B6000F021F8024698
:1030F0000B4B9B681B0903F00F030A49CB5C22FAB8
:1031000003F3094A1360094B1B681846FEF75AFB84
:10311000002318461037BD4680BD00BF003C02406A
:103120000038024048480008000000200400002049
:103130002DE9B04F90B000AF00237B630023FB6309
:1031400000233B630023BB63594B9B6803F00C03D4
:10315000082B0DD0082B00F2A180002B02D0042BED
:1031600003D09BE0534BBB639BE0534BBB6398E0A6
:103170004F4B5B6803F03F037B634D4B5B6803F48D
:103180008003002B28D04A4B5B689B0900223B62DE
:103190007A623B6AC3F308000021474B03FB01F24C
:1031A000002300FB03F31344434AA0FB0212FA621C
:1031B0000A46BA62FA6A1344FB627B6B0022BB6167
:1031C000FA61D7E90623D7E90A01FDF761F802465B
:1031D0000B461346FB6353E0354B5B689B090022AB
:1031E0003B617A613B69C3F3080A4FF0000B52461A
:1031F0005B464FF000004FF00001590141EAD261F7
:10320000500102460B46B2EB0A0863EB0B094FF084
:1032100000024FF000034FEA891343EA98634FEA34
:103220008812B2EB080463EB09054FF000024FF07F
:103230000003EB0043EA5473E20014461D4614EB0E
:103240000A033B6045EB0B037B604FF000024FF03D
:103250000003D7E9004529468B02214643EA9153F2
:1032600021468A02104619467B6B0022BB60FA6039
:10327000D7E90223FDF70CF802460B461346FB6321
:103280000B4B5B681B0C03F0030301335B003B63D8
:10329000FA6B3B6BB2FBF3F3BB6302E0054BBB6322
:1032A00000BFBB6B18464037BD46BDE8B08F00BFBE
:1032B000003802400024F40040787D0180B400AF63
:1032C000034B1B681846BD465DF8047B704700BF82
:1032D0000000002080B500AFFFF7F0FF0246054B6D
:1032E0009B689B0A03F007030349CB5C22FA03F3B4
:1032F000184680BD003802405848000880B500AF2D
:10330000FFF7DCFF0246054B9B685B0B03F00703EE
:103310000349CB5C22FA03F3184680BD0038024013
:103320005848000880B582B000AF78607B68002BF9
:1033300001D1012342E07B6893F84130DBB2002BDE
:1033400006D17B68002283F840207868FEF77EF87B
:103350007B68242283F841207B681B68DA687B68DD
:103360001B6822F40052DA60786800F009FA7B6882
:103370001B681A697B681B6822F490421A617B689B
:103380001B685A697B681B6822F02A025A617B68B5
:103390001B68DA687B681B6842F40052DA607B685D
:1033A00000225A647B68202283F841207B68202217
:1033B00083F842207B6800225A63002318460837AE
:1033C000BD4680BD80B58AB002AFF860B9603B6091
:1033D0001346FB8000237B61FB6893F84130DBB22E
:1033E000202B75D1BB68002B02D0FB88002B01D1AC
:1033F00001236EE0FB6800225A64FB68212283F8F7
:103400004120FEF723FA7861FB68FA889A84FB680A
:10341000FA88DA84FB689B68B3F5805F08D1FB68A3
:103420001B69002B04D10023FB61BB68BB6103E077
:10343000BB68FB610023BB612EE03B6800937B69A6
:1034400000228021F86800F0DFF80346002B05D049
:10345000FB68202283F8412003233AE0FB69002B1C
:103460000BD1BB691B881A46FB681B68C2F30802B4
:103470005A60BB690233BB6107E0FB691A78FB68DD
:103480001B685A60FB690133FB61FB68DB8C9BB2F4
:10349000013B9AB2FB68DA84FB68DB8C9BB2002BA1
:1034A000CBD13B6800937B6900224021F86800F093
:1034B000ABF80346002B05D0FB68202283F841209F
:1034C000032306E0FB68202283F84120002300E06C
:1034D000022318462037BD4680BD80B58AB002AFB2
:1034E000F860B9603B601346FB8000237B61FB689A
:1034F00093F84230DBB2202B40F08180BB68002B78
:1035000002D0FB88002B01D1012379E0FB68002267
:103510005A64FB68222283F84220FB6800221A6367
:10352000FEF794F97861FB68FA889A85FB68FA8857
:10353000DA85FB689B68B3F5805F08D1FB681B697F
:10354000002B04D10023FB61BB68BB6103E0BB68B7
:10355000FB610023BB6147E03B6800937B6900226D
:103560002021F86800F050F80346002B05D0FB68D6
:10357000202283F84220032342E0FB69002B0CD178
:10358000FB681B685B689BB2C3F308039AB2BB6914
:103590001A80BB690233BB611FE0FB689B68B3F50F
:1035A000805F07D0FB689B68002B0AD1FB681B6912
:1035B000002B06D1FB681B685B68DAB2FB691A70E6
:1035C00008E0FB681B685B68DBB203F07F03DAB2DC
:1035D000FB691A70FB690133FB61FB68DB8D9BB2F1
:1035E000013B9AB2FB68DA85FB68DB8D9BB2002B4E
:1035F000B2D1FB68202283F84220002300E002239E
:1036000018462037BD4680BD80B586B000AFF86053
:10361000B9603B601346FB713BE03B6AB3F1FF3F8F
:1036200037D0FEF713F902463B68D31A3A6A9A423A
:1036300002D33B6A002B01D103233AE0FB681B68ED
:10364000DB6803F00403002B23D0BB68802B20D061
:10365000BB68402B1DD0FB681B681B6803F0080388
:10366000082B16D100237B61FB681B681B687B61FC
:10367000FB681B685B687B617B69F86800F01DF87C
:10368000FB6808225A64FB68002283F8402001236B
:103690000FE0FB681B681A68BB681340BA689A425F
:1036A0000CBF01230023DBB21A46FB799A42B4D047
:1036B000002318461837BD4680BD80B495B000AFD2
:1036C00078607B681B680C337B637B6B53E8003F3F
:1036D0003B633B6B23F49073FB647B681B680C3388
:1036E000FA6C3A64FB63F96B3A6C41E80023BB6304
:1036F000BB6B002BE5D17B681B6814333B623B6AD4
:1037000053E8003FFB61FB6923F00103BB647B6866
:103710001B681433BA6CFA62BB62B96AFA6A41E890
:1037200000237B627B6A002BE5D17B681B6B012B3E
:1037300019D17B681B680C33FB60FB6853E8003FC2
:10374000BB60BB6823F010037B647B681B680C3391
:103750007A6CBA617B617969BA6941E800233B619F
:103760003B69002BE5D17B68202283F842207B68EF
:1037700000221A6300BF5437BD465DF8047B7047D2
:103780002DE9B04FC0B000AFC7F8F400D7F8F4305F
:103790001B681B6923F44050D7F8F430D968D7F878
:1037A000F4301A6840EA01031361D7F8F4309A68DC
:1037B000D7F8F4301B691A43D7F8F4305B691A4321
:1037C000D7F8F430DB691343C7F8F830D7F8F43092
:1037D0001B68DB6823F4164121F00C01D7F8F430A4
:1037E0001A68D7F8F8300B43D360D7F8F4301B6869
:1037F0005B6923F44070D7F8F4309969D7F8F43056
:103800001A6840EA01035361D7F8F4301A688F4B05
:103810009A4205D0D7F8F4301A688D4B9A4204D1F9
:10382000FFF76CFDC7F8FC0003E0FFF753FDC7F896
:10383000FC00D7F8F430DB69B3F5004F40F00C81A1
:10384000D7F8FC300022C7F8E830C7F8EC20D7E9F9
:103850003A4522462B469118B9655B41FB65D7E98D
:103860001623214612EB0108294643EB01094FF0CC
:1038700000024FF000034FEAC90343EA58734FEACE
:10388000C80290469946234618EB0303C7F8E03078
:103890002B4649EB0303C7F8E430D7F8F4305B68F4
:1038A0000022C7F8D830C7F8DC20D7E936120B461B
:1038B000DB183B65134642EB03037B65D7E9142312
:1038C000D7E93801FCF7E4FC02460B46614BA3FB49
:1038D00002235B091C01D7F8FC300022C7F8D03066
:1038E000C7F8D420D7E9348942464B469118B964C9
:1038F0005B41FB64D7E91223414612EB010A4946BA
:1039000043EB010B4FF000024FF000034FEACB03F3
:1039100043EA5A734FEACA0292469B4643461AEB61
:103920000303C7F8C8304B464BEB0303C7F8CC3052
:10393000D7F8F4305B680022C7F8C030C7F8C4205D
:10394000D7E930120B46DB183B64134642EB030306
:103950007B64D7E91023D7E93201FCF799FC0246D2
:103960000B4611463B4BA3FB01235B09642202FB80
:1039700003F3CB1ADB0003F13202364BA3FB022325
:103980005B095B0003F4F8731C44D7F8FC30002299
:10399000C7F8B830C7F8BC20D7E92E8942464B4655
:1039A0009118B9635B41FB63D7E90E234146511877
:1039B000396349464B417B634FF000024FF00003EF
:1039C000D7E90CAB5946CB00514643EA51735146F7
:1039D000CA0010461946034642469B18C7F8B03045
:1039E0004B460A4642EB0303C7F8B430D7F8F4302D
:1039F0005B680022C7F8A830C7F8AC20D7E92A12C4
:103A00000B46DB18BB62134642EB0303FB62D7E9AC
:103A10000A23D7E92C01FCF73BFC02460B460D4B71
:103A2000A3FB02135B09642101FB03F3D31ADB0040
:103A30003233084AA2FB03235B0903F00702D7F8DD
:103A4000F4301B6822449A6006E100BF0010014078
:103A5000001401401F85EB51D7F8FC300022C7F855
:103A6000A030C7F8A420D7E9288942464B469118D0
:103A700039625B417B62D7E90823414654184946C5
:103A800043EB01054FF000024FF00003EB0043EA67
:103A90005473E20014461D464346E318C7F89830B5
:103AA0004B4645EB0303C7F89C30D7F8F4305B680E
:103AB0000022C7F89030C7F894204FF000024FF072
:103AC0000003D7E9244529468B00214643EA917338
:103AD00021468A00D7E92601FCF7DAFB02460B46AD
:103AE000604BA3FB02235B091C01D7F8FC300022CA
:103AF000C7F88830C7F88C20D7E9228942464B4660
:103B00009118B9615B41FB61D7E906234146511821
:103B1000396149464B417B614FF000024FF0000391
:103B2000D7E904AB5946CB00514643EA517351469D
:103B3000CA0010461946034642469B18C7F8803013
:103B40004B460A4642EB0303C7F88430D7F8F430FB
:103B50005B680022BB67FA674FF000024FF000037A
:103B6000D7E91E8949468B00414643EA9173414695
:103B70008A00D7E92001FCF78BFB02460B46114671
:103B8000384BA3FB01235B09642202FB03F3CB1A2E
:103B90001B013233334AA2FB03235B0903F0F0031A
:103BA0001C44D7F8FC3000223B677A67D7E91C89B0
:103BB00042464B469118B9605B41FB60D7E902234E
:103BC00041465118396049464B417B604FF0000235
:103BD0004FF00003D7E900AB5946CB00514643EA0A
:103BE00051735146CA0010461946034642469B1877
:103BF000BB664B460A4642EB0303FB66D7F8F4303C
:103C00005B6800223B667A664FF000024FF00003CB
:103C1000D7E9188949468B00414643EA91734146EA
:103C20008A00D7E91A01FCF733FB02460B460D4B1D
:103C3000A3FB02135B09642101FB03F3D31A1B01ED
:103C40003233084AA2FB03235B0903F00F02D7F8C3
:103C5000F4301B6822449A6000BF07F58077BD46A8
:103C6000BDE8B08F1F85EB5130B51446002C9BB0DA
:103C700005461A4605DA8B2303604FF0FF301BB070
:103C800030BD4FF40273ADF80C3014BF04F1FF33B4
:103C90002346029305934FF6FF7300910491ADF80C
:103CA0000E3069461E9B00F0A1F9431CBCBF8B235C
:103CB0002B60002CE3D0009B00221A70DFE700008D
:103CC00007B5009313460A46014603480068FFF70C
:103CD000CBFF03B05DF804FB2C0000200244034638
:103CE000934200D1704703F8011BF9E7014B1868B4
:103CF000704700BF2C00002070B50D4D0D4C641BAB
:103D0000A4100026A64209D10B4D0C4C00F066FC15
:103D1000641BA4100026A64205D170BD55F8043BD3
:103D200098470136EEE755F8043B98470136F2E72D
:103D3000A4480008A4480008A4480008A8480008AF
:103D40007047704738B50546002941D051F8043C0A
:103D50000C1F002BB8BFE41800F0E0F81D4A1368F0
:103D600033B9636014602846BDE8384000F0DCB821
:103D7000A34208D9206821188B4201BF19685B68EB
:103D800009182160EDE71A465B680BB1A342FAD926
:103D900011685018A0420BD120680144501883428A
:103DA0001160E0D118685B68536008441060DAE77E
:103DB00002D90C232B60D6E7206821188B4204BF60
:103DC00019685B68636004BF091821605460CAE722
:103DD00038BD00BF2803002070B50F4E0C46316877
:103DE000054611B900F0A6FB30602146284600F0D8
:103DF000A1FB431C03D14FF0FF34204670BDC41C0F
:103E000024F00304A042F8D0211A284600F092FBC7
:103E10000130F2D1EFE700BF240300202DE9F84381
:103E2000CD1C25F0030508350C2D38BF0C25002DC1
:103E3000064601DBA94204D90C2333600020BDE80B
:103E4000F883DFF8D48000F069F8D8F800301C4619
:103E500044BB29463046FFF7BFFF431C044658D1F8
:103E6000D8F800402746002F43D1002C4BD02368C0
:103E70003946304604EB030900F05CFB814542D132
:103E800021686D1A29463046FFF7A6FF01303AD067
:103E900023682B442360D8F800305A6862BBC8F806
:103EA00000700FE02268521B20D40B2A17D9611929
:103EB000A342256018BF5960636808BFC8F80010A6
:103EC00062514B60304600F02FF804F10B00231DC7
:103ED00020F00700C21A1CBF1B1AA350AFE762688C
:103EE000A3420CBFC8F800205A60EBE72346646881
:103EF000AEE73C467F68B6E71A465B68A342FBD153
:103F000000235360DEE70C233360304600F00CF8EA
:103F100094E70560D6E700BF280300200148FFF7BB
:103F20000FBF00BF200300200148FFF70ABF00BFFA
:103F3000200300202DE9F0478E681F46BE420B6823
:103F400082460C4690462DD8B1F90C2012F4906FA1
:103F500026D06569096905EB4505A3EB010905EB69
:103F6000D5757B1C4B446D109D4238BF1D465305D3
:103F700027D52946FFF752FF064660B321694A4616
:103F800000F0E8FAA38923F4906343F08003A3814F
:103F9000266165614E44A5EB09052660A5603E4695
:103FA000BE4200D93E4620683246414600F0A8FA9B
:103FB000A3689B1BA3602368334423600020BDE8F3
:103FC000F0872A4600F0D4FA06460028E0D121699D
:103FD0005046FFF7B7FE0C23CAF80030A38943F020
:103FE0004003A3814FF0FF30E9E700002DE9F04FD7
:103FF00098468B891B069DB007460D46144610D582
:104000000B6973B94021FFF709FF2860286130B9B7
:104010000C233B604FF0FF301DB0BDE8F08F402314
:104020006B610023099320238DF82930CDF80C8093
:104030003023DFF89C818DF82A304FF001092346A8
:104040009A4613F8012B0AB1252AF9D1BAEB040BD1
:104050000BD05B46224629463846FFF76BFF0130FE
:1040600000F0A780099A5A4409929AF80030002B70
:1040700000F09F8000234FF0FF32CDE905230AF1C5
:10408000010A049307938DF853301A93544605227E
:1040900014F8011B4E48FCF7ABF8049AD8B9D006C7
:1040A00044BF20238DF85330110744BF2B238DF8D4
:1040B00053309AF800302A2B15D0079A5446002026
:1040C0004FF00A0C214611F8013B303B092B4BD92C
:1040D000B0B1079214E0A0EB080309FA03F313430D
:1040E0000493A246D2E7039B191D1B680391002B82
:1040F000BBBF5B4242F0020207930793B8BF049232
:1041000023782E2B0AD163782A2B32D1039B1A1DD8
:104110001B68039243EAE37302340593DFF8C0A0FF
:10412000217803225046FCF763F838B1049BA0EBDA
:104130000A004022824013430134049314F8011B07
:1041400024488DF828100622FCF752F8002836D0B3
:10415000214B1BBB039B073323F007030833039357
:10416000099B334409936AE70CFB02320C46012099
:10417000A8E700230134059319464FF00A0C2046A6
:1041800010F8012B303A092A03D9002BC6D005912B
:10419000C4E70CFB012104460123F0E703AB0093C5
:1041A0002A460E4B04A93846AFF30080421C06464F
:1041B000D6D1AB895B063FF52DAF09982CE703AB51
:1041C00000932A46054B04A9384600F079F8EDE73C
:1041D000684800087248000800000000353F0008E9
:1041E0006E4800082DE9F047164698468A680B6924
:1041F000DDF820909342B8BF1346336091F8432016
:1042000007460C460AB1013333602368990642BF62
:10421000336802333360256815F0060506D104F1D2
:10422000190AE36832689B1AAB4226DC94F84330E3
:104230002268003B18BF012392062BD404F14302ED
:1042400041463846C84701301ED02368226903F032
:104250000603042B02BFE5683368ED1AA3680CBFA0
:1042600025EAE57500259342C4BF9B1AED18002688
:104270001A34B5421AD1002008E0012352464146C3
:104280003846C847013003D14FF0FF30BDE8F08712
:104290000135C6E7E1185A1C302081F8430022445A
:1042A00094F8451082F843100233C7E701232246F1
:1042B00041463846C8470130E6D00136D9E700000C
:1042C0002DE9FF470F7E0C9E782F914680460C46C5
:1042D0009A4601F1430207D8622F0AD8002F00F056
:1042E000D280582F00F0B98004F1420684F8427061
:1042F0003AE0A7F16303152BF6D801A151F823F09A
:10430000594300086D430008E9420008E9420008EB
:10431000E9420008E94200086D430008E94200084C
:10432000E9420008E9420008E94200086D4400083B
:104330009743000827440008E9420008E9420008C2
:104340008F440008E942000897430008E94200084A
:10435000E94200082F44000833681A1D1B683260C8
:1043600004F1420684F8423001239DE0336820685E
:10437000191D3160060601D51D6803E04506FBD511
:10438000B3F90050002D03DA2D236D4284F8433039
:1043900059480A2311E021683368080653F8045B82
:1043A00002D4490648BFADB26F2F5348336014BFE3
:1043B0000A230823002184F843106668A660002EB3
:1043C000A2BF216821F0040121600DB9002E4BD05D
:1043D0001646B5FBF3F103FB1157C75D06F8017DE7
:1043E0002F46BB420D46F4D9082B0BD12368DF07BB
:1043F00008D5236961689942DEBF302306F8013C85
:1044000006F1FF36921B2261CDF800A04B4603AAAD
:1044100021464046FFF7E6FE01304AD14FF0FF301B
:1044200004B0BDE8F087236843F0200323603348DD
:10443000782784F84570236831681F0651F8045BBB
:1044400002D45F0648BFADB23160D90744BF43F024
:10445000200323601DB11023ACE72748E9E7236858
:1044600023F020032360F6E71646BDE7336825688E
:104470006169181D30602E061B6801D5196002E0C5
:104480006806FBD51980002323611646BCE7336814
:104490001A1D32601E68626800213046FBF7A8FED4
:1044A00008B1801B606063682361002384F8433097
:1044B000AAE72369324649464046D0470130ADD08D
:1044C00023689B0713D4E068039B9842B8BF184643
:1044D000A6E70123324649464046D04701309DD0E9
:1044E0000135E36803995B1AAB42F2DCEBE7002588
:1044F00004F11906F5E700BF794800088A4800086A
:10450000884210B501EB020402D98442234607D841
:10451000431EA14208D011F8012B03F8012FF8E740
:10452000024401468A4200D110BD13F8014D02F841
:10453000014DF7E738B5064D0023044608462B60C9
:10454000FDF776F8431C02D12B6803B1236038BD18
:104550001C0300200A44914200F1FF3300D1704750
:1045600010B511F8014B03F8014F9142F9D110BD7C
:104570002DE9F041804615460C4621B9BDE8F041D1
:104580001146FFF74BBC2AB9FFF7DCFB002420469D
:10459000BDE8F08100F01AF88542064602D8B5EB76
:1045A000500FF4D829464046FFF738FC074600284C
:1045B000ECD0B5422A46214628BF3246FFF7CAFF53
:1045C00021464046FFF7BEFB3C46E0E751F8043C7D
:1045D000181F002BBCBF0B58C0187047F8B500BFA0
:1045E000F8BC08BC9E467047F8B500BFF8BC08BCD4
:0445F0009E4670472C
:1045F4004E6577206669726D7761726520617661B8
:10460400696C61626C65210A50726573732072650E
:1046140073657420746F207570646174650A00009A
:1046240043616E277420766572696679206E6577BA
:10463400206669726D77617265210A005354415294
:10464400540A000041434B0A00000000444F4E4509
:104654000A000000557064617465206669726D77A4
:10466400617265206572726F72210A005761697404
:10467400696E6720666F72206E6577206669726D59
:10468400776172652E2E2E0A00000000636D64208F
:104694006572726F722069643A20252E3032780A6E
:1046A400000000004661696C656420746F207570B9
:1046B40064617465206669726D77617265210A00B0
:1046C40045726173696E672063757272656E7420DA
:1046D4006669726D77617265210A000045726173C3
:1046E400652066696E6973686564210A00000000CC
:1046F400526F6C6C206261636B20746F206F6C640A
:1047040065722076657273696F6E210A000000007D
:104714004572617365206661696C6564210A0000F5
:10472400556E6B6E6F7720636F6D6D616E64210AD9
:1047340000000000456E74657220426F6F746C6FE8
:1047440061646572206D6F6465210A004352435FA2
:10475400486F73743A2025640A0000005265616C46
:104764005F617070425F4352433A2025640A00003F
:104774004E6577206669726D776172652064657431
:1047840065636564210A4A756D7020746F204170F9
:10479400706C69636174696F6E2042210A000000C5
:1047A40043757272656E74206669726D77617265A5
:1047B400206170706C69636174696F6E3A20252E94
:1047C400580A00005265616C5F617070415F43522A
:1047D400433A2025640A00004E6577206669726DAD
:1047E400776172652064657465636564210A4A753E
:1047F4006D7020746F204170706C69636174696FAF
:104804006E2041210A00000043757272656E7420A7
:104814006669726D77617265206170706C6963613D
:1048240074696F6E3A20252E780A00004E6F206658
:1048340069726D7761726520617661696C61626C21
:1048440065210A00000000000000000001020304CA
:104854000607080900000000010203040006101600
:1048640000061016232D302B2000686C4C00656662
:1048740067454647003031323334353637383941AD
:1048840042434445460030313233343536373839C3
:084894006162636465660000C7
:08489C0044B9FF7F0100000098
:0448A400C501000842
:0448A800A101000862
:1048AC000024F400100000000100000000000000D3
:1048BC0000000000000000000000000001000000EB
:1048CC00000000000000000000000000300000208C
:1048DC0000000000E40100204C020020B402002083
:1048EC0000000000000000000000000000000000BC
:1048FC0000000000000000000000000000000000AC
:10490C00000000000000000000000000000000009B
:0C491C000000000000000000000000008F
:10800000AA55000000000000000000000100000070
:108010000000000000000000010000000A00000055
:04802000000000005C
:04000005080016C118
:00000001FF
